{
  "contractName": "SplitPayment",
  "abi": [
    {
      "inputs": [
        {
          "internalType": "address",
          "name": "_owner",
          "type": "address"
        }
      ],
      "stateMutability": "nonpayable",
      "type": "constructor"
    },
    {
      "inputs": [],
      "name": "owner",
      "outputs": [
        {
          "internalType": "address",
          "name": "",
          "type": "address"
        }
      ],
      "stateMutability": "view",
      "type": "function"
    },
    {
      "stateMutability": "payable",
      "type": "receive"
    },
    {
      "inputs": [
        {
          "internalType": "address[]",
          "name": "recipients",
          "type": "address[]"
        },
        {
          "internalType": "uint256[]",
          "name": "amounts",
          "type": "uint256[]"
        }
      ],
      "name": "send",
      "outputs": [],
      "stateMutability": "payable",
      "type": "function"
    }
  ],
  "bytecode": "0x608060405234801561001057600080fd5b506040516109f13803806109f1833981810160405281019061003291906100db565b806000806101000a81548173ffffffffffffffffffffffffffffffffffffffff021916908373ffffffffffffffffffffffffffffffffffffffff16021790555050610108565b600080fd5b600073ffffffffffffffffffffffffffffffffffffffff82169050919050565b60006100a88261007d565b9050919050565b6100b88161009d565b81146100c357600080fd5b50565b6000815190506100d5816100af565b92915050565b6000602082840312156100f1576100f0610078565b5b60006100ff848285016100c6565b91505092915050565b6108da806101176000396000f3fe60806040526004361061002d5760003560e01c80638da5cb5b14610039578063a645ff5f1461006457610034565b3661003457005b600080fd5b34801561004557600080fd5b5061004e610080565b60405161005b91906102e2565b60405180910390f35b61007e6004803603810190610079919061058f565b6100a4565b005b60008054906101000a900473ffffffffffffffffffffffffffffffffffffffff1681565b60008054906101000a900473ffffffffffffffffffffffffffffffffffffffff1673ffffffffffffffffffffffffffffffffffffffff163373ffffffffffffffffffffffffffffffffffffffff1614610132576040517f08c379a000000000000000000000000000000000000000000000000000000000815260040161012990610664565b60405180910390fd5b8051825114610176576040517f08c379a000000000000000000000000000000000000000000000000000000000815260040161016d906106f6565b60405180910390fd5b6000805b82518110156101be5782818151811061019657610195610716565b5b6020026020010151826101a99190610774565b915080806101b6906107ca565b91505061017a565b50803414610201576040517f08c379a00000000000000000000000000000000000000000000000000000000081526004016101f890610884565b60405180910390fd5b60005b835181101561029b578381815181106102205761021f610716565b5b602002602001015173ffffffffffffffffffffffffffffffffffffffff166108fc84838151811061025457610253610716565b5b60200260200101519081150290604051600060405180830381858888f19350505050158015610287573d6000803e3d6000fd5b508080610293906107ca565b915050610204565b50505050565b600073ffffffffffffffffffffffffffffffffffffffff82169050919050565b60006102cc826102a1565b9050919050565b6102dc816102c1565b82525050565b60006020820190506102f760008301846102d3565b92915050565b6000604051905090565b600080fd5b600080fd5b600080fd5b6000601f19601f8301169050919050565b7f4e487b7100000000000000000000000000000000000000000000000000000000600052604160045260246000fd5b61035f82610316565b810181811067ffffffffffffffff8211171561037e5761037d610327565b5b80604052505050565b60006103916102fd565b905061039d8282610356565b919050565b600067ffffffffffffffff8211156103bd576103bc610327565b5b602082029050602081019050919050565b600080fd5b6103dc816102c1565b81146103e757600080fd5b50565b6000813590506103f9816103d3565b92915050565b600061041261040d846103a2565b610387565b90508083825260208201905060208402830185811115610435576104346103ce565b5b835b8181101561045e578061044a88826103ea565b845260208401935050602081019050610437565b5050509392505050565b600082601f83011261047d5761047c610311565b5b813561048d8482602086016103ff565b91505092915050565b600067ffffffffffffffff8211156104b1576104b0610327565b5b602082029050602081019050919050565b6000819050919050565b6104d5816104c2565b81146104e057600080fd5b50565b6000813590506104f2816104cc565b92915050565b600061050b61050684610496565b610387565b9050808382526020820190506020840283018581111561052e5761052d6103ce565b5b835b81811015610557578061054388826104e3565b845260208401935050602081019050610530565b5050509392505050565b600082601f83011261057657610575610311565b5b81356105868482602086016104f8565b91505092915050565b600080604083850312156105a6576105a5610307565b5b600083013567ffffffffffffffff8111156105c4576105c361030c565b5b6105d085828601610468565b925050602083013567ffffffffffffffff8111156105f1576105f061030c565b5b6105fd85828601610561565b9150509250929050565b600082825260208201905092915050565b7f4f6e6c79206f776e65722063616e2073656e6420612054782100000000000000600082015250565b600061064e601983610607565b915061065982610618565b602082019050919050565b6000602082019050818103600083015261067d81610641565b9050919050565b7f526563697069656e747320616e6420616d6f756e7473206c656e677468206d6960008201527f736d617463680000000000000000000000000000000000000000000000000000602082015250565b60006106e0602683610607565b91506106eb82610684565b604082019050919050565b6000602082019050818103600083015261070f816106d3565b9050919050565b7f4e487b7100000000000000000000000000000000000000000000000000000000600052603260045260246000fd5b7f4e487b7100000000000000000000000000000000000000000000000000000000600052601160045260246000fd5b600061077f826104c2565b915061078a836104c2565b9250827fffffffffffffffffffffffffffffffffffffffffffffffffffffffffffffffff038211156107bf576107be610745565b5b828201905092915050565b60006107d5826104c2565b91507fffffffffffffffffffffffffffffffffffffffffffffffffffffffffffffffff820361080757610806610745565b5b600182019050919050565b7f53656e742076616c756520646f6573206e6f74206d6174636820746f74616c2060008201527f616d6f756e747300000000000000000000000000000000000000000000000000602082015250565b600061086e602783610607565b915061087982610812565b604082019050919050565b6000602082019050818103600083015261089d81610861565b905091905056fea2646970667358221220016c976d8437d6dc3eb7b6c5f5f819ecf3c93db51903ff637886a250fb306d6264736f6c634300080d0033",
  "immutableReferences": {},
  "source": "// SPDX-License-Identifier: MIT\npragma solidity ^0.8.13;\n\ncontract SplitPayment {\n    address public owner;\n\n    constructor(address _owner) {\n        owner = _owner;\n    }\n\n    modifier onlyOwner() {\n        require(msg.sender == owner, \"Only owner can send a Tx!\");\n        _;\n    }\n\n    function send(address[] memory recipients, uint256[] memory amounts) public payable onlyOwner {\n        require(recipients.length == amounts.length, \"Recipients and amounts length mismatch\");\n        uint256 total = 0;\n\n        for (uint256 i = 0; i < amounts.length; i++) {\n            total += amounts[i];\n        }\n\n        require(msg.value == total, \"Sent value does not match total amounts\");\n\n        for (uint256 i = 0; i < recipients.length; i++) {\n            payable(recipients[i]).transfer(amounts[i]);\n        }\n    }\n\n    // Fallback function to allow receiving Ether\n    receive() external payable {}\n}\n",
  "sourcePath": "E:\\Coding\\Web3\\Web3 master\\split payment\\contracts\\SplitPayment.sol",
  "compiler": {
    "name": "solc",
    "version": "0.8.13+commit.abaa5c0e.Emscripten.clang"
  },
  "schemaVersion": "3.4.16",
  "updatedAt": "2024-12-11T09:14:22.465Z",
  "devdoc": {
    "kind": "dev",
    "methods": {},
    "version": 1
  },
  "userdoc": {
    "kind": "user",
    "methods": {},
    "version": 1
  }
}